:1000000073C082C081C080C07FC07EC07DC07CC004
:100010007BC07AC079C078C077C076C075C074C024
:1000200073C072C071C070C06FC06EC06DC06CC054
:100030006BC06AC00CFB0916FB0D20FB1229FA16D7
:1000400033FA1A3DFA1F47FA2350FA285AF92C645A
:10005000F9306EF9347CF9318AF92E98F82CA6F82B
:1000600029B3F827C1F824CFF822DDF71FEBF71DDD
:10007000F1F01CE8DC1DDFC81FD6B421CD9F22C4DF
:100080008B24BB7726B26328A94E29A03A2B952F43
:1000900030862D39782B4169294A5B27524D255BE3
:1000A0003E236430216C211F75131D7D0E24800DAD
:1000B00031800C3D800B49800B55800A6281096EAE
:1000C00081097A81088781079381079081088B8154
:1000D000088581098081097A810A75820A6F820BFD
:1000E0006A820B64820C5F8211241FBECFEFD4E0C2
:1000F000DEBFCDBF11E0A0E0B1E001C01D92A43B86
:10010000B107E1F7A8D07EC17BCFCF93DF93C0E0EA
:10011000D1E089914DD081E0C43BD807D1F7DF9180
:10012000CF9108958091000190910101A091020169
:10013000E0E0F1E0238134814581219331934193C3
:1001400021E0E13BF207B1F78093B1019093B20156
:10015000A093B3010895CF93DF9390E0FC01EE0FDD
:10016000FF1FE80FF91FE050FF4FEB0188819981D5
:10017000AA8180839183A283DF91CF910895E0E0EB
:10018000F1E0DC012D913D914C912193319341930C
:10019000B1E0E43BFB07A9F7089584EBE0E0F1E070
:1001A000DF011D928A95E9F70895F7DF28980895F1
:1001B00098E0289A880F0000000008F028980000B6
:1001C000000000000000000000000000000028986F
:1001D00000009A9571F70895FC01818190E0062E48
:1001E00002C0959587950A94E2F78183808190E01B
:1001F000062E02C0959587950A94E2F78083828146
:1002000090E002C0959587956A95E2F782830895FC
:100210004C3340F423E0429F600D711D112443E0F4
:1002200050E0E7C02FEFFC01218310821282089575
:10023000440F421720F0220F2150241B422FE8CFF9
:10024000009741F0EFEFF1E13197F1F700C00000C6
:100250000197F6CF0895CF93DF9300D000D000D060
:10026000CDB7DEB72898209AA0DF00E010E09CE32D
:10027000C92ED12C0C3311059CF42CE3402F64E3E0
:1002800070E0CE010196D4DF62E0CE010196A4DFDA
:10029000BE016F5F7F4F802F5EDF0F5F1F4FEACF82
:1002A00085E0F82E0CE310E03DDF2FDF89E190E0E0
:1002B000C7DF0150110901151105B1F7FA9491F743
:1002C00003E010E02CE3412F64E370E0CE010196DF
:1002D000AFDF62E0CE0101967FDFCE0101964FDFF6
:1002E00014DF82E390E0ACDF1F5F1C3359F701504D
:1002F00041F7A12C512C2CE3452D64E370E0CE0195
:10030000049696DF4ADFBE016C5F7F4F8A2D23DFA4
:100310002C813D814E8129833A834B8300E010E09C
:10032000B12C61E0CE01019657DFE12CF12C3801B0
:100330006A0C7B1C4501801A910A8CE3880E911C83
:10034000C701860D971DB6012DD0BE016F5F7F4F8F
:1003500002DFC4018E0D9F1DB60124D0BE016F5F68
:100360007F4FF9DE8FEFE81AF80A82E0E816F10411
:1003700039F70E5F1F4F0830110599F61FE0D2DEE6
:10038000C4DE89E190E05CDF1150C9F7C5018D96AC
:10039000B60108D0A82E53948CE35812ACCF00E0DD
:1003A00010E068CF97FB072E16F4009406D077FD77
:1003B00008D00BD007FC05D03EF4909581959F4F57
:1003C0000895709561957F4F0895AA1BBB1B51E15D
:1003D00007C0AA1FBB1FA617B70710F0A61BB70BB5
:1003E000881F991F5A95A9F780959095BC01CD015A
:1003F0000895FB01DC0102C005900D924150504070
:08040000D8F70895F894FFCF2E
:00000001FF
